:100000000C9462000C948A000C948A000C94A10653
:100010000C94A1060C94A1060C948A000C948A00FE
:100020000C948A000C948A000C948A000C948A0028
:100030000C948A000C948A000C948A000C948A0018
:100040000C9457060C948A000C9425060C94FF051A
:100050000C948A000C948A000C948A000C948A00F8
:100060000C948A000C948A000000000024002700F1
:100070002A0000000000250028002B0000000008D6
:10008000000201000003040700000000000000005F
:1000900000000000230026002900040404040404D6
:1000A0000404020202020202030303030303010227
:1000B00004081020408001020408102001020408F6
:1000C0001020F00611241FBECFEFD8E0DEBFCDBF59
:1000D00011E0A0E0B1E0EAEDF7E102C005900D9279
:1000E000AA3FB107D9F722E0AAEFB1E001C01D9203
:1000F000A03CB207E1F710E0C2E6D0E004C02197CF
:10010000FE010E94A409C136D107C9F70E943B072E
:100110000C94EB0B0C940000DC01ED91FC91019030
:10012000F081E02D0994CF92DF92EF92FF920F932E
:100130001F93CF93DF936C017A018B01C0E0D0E075
:10014000CE15DF0589F0D8016D918D01D601ED91B5
:10015000FC910190F081E02DC6010995892B11F4E5
:100160007E0102C02196ECCFC701DF91CF911F9194
:100170000F91FF90EF90DF90CF900895FC01918D4B
:10018000828D981761F0828DDF01A80FB11D5D96F9
:100190008C91928D9F5F9F73928F90E008958FEF67
:1001A0009FEF0895FC01918D828D981731F0828D1B
:1001B000E80FF11D858D90E008958FEF9FEF089572
:1001C000FC01918D228D892F90E0805C9F4F821BD6
:1001D00091098F73992708958BE092E00E94E000C7
:1001E00021E0892B09F420E0822F0895FC01848D01
:1001F000DF01A80FB11DA35ABF4F2C91848D90E051
:1002000001968F739927848FA689B7892C93A0892B
:10021000B1898C9180648C93938D848D981306C0E2
:100220000288F389E02D80818F7D80830895EF928D
:10023000FF920F931F93CF93DF93EC0181E0888FA0
:100240009B8D8C8D981305C0E889F989808185FD87
:1002500024C0F62E0B8D10E00F5F1F4F0F73112778
:10026000E02E8C8DE8120CC00FB607FCFACFE8899F
:10027000F989808185FFF5CFCE010E94F600F1CF8C
:100280008B8DFE01E80FF11DE35AFF4FF0820B8FBB
:10029000EA89FB898081806207C0EE89FF896083DB
:1002A000E889F98980818064808381E090E0DF9132
:1002B000CF911F910F91FF90EF900895CF93DF930F
:1002C000EC01888D8823C9F0EA89FB89808185FD4E
:1002D00005C0A889B9898C9186FD0FC00FB607FCAF
:1002E000F5CF808185FFF2CFA889B9898C9185FFF0
:1002F000EDCFCE010E94F600E7CFDF91CF910895B8
:1003000080E090E0892B29F00E94EC0081110C9490
:100310000000089590E0FC01E458FF4F3491FC0187
:10032000E255FF4F2491FC01E656FF4FE491EE2386
:1003300009F43BC0332339F1333091F038F43130D4
:10034000A9F0323001F584B58F7D12C0373091F0BD
:100350003830A1F03430B9F4809180008F7D03C033
:10036000809180008F77809380000DC084B58F7757
:1003700084BD09C08091B0008F7703C08091B00028
:100380008F7D8093B000F0E0EE0FFF1FEE58FF4F1F
:10039000A591B4918FB7F894EC91611103C02095A9
:1003A0002E2301C02E2B2C938FBF0895CF93DF9364
:1003B00090E0FC01E255FF4F2491FC01E656FF4F0F
:1003C0008491882361F190E0880F991FFC01E8591E
:1003D000FF4FC591D491FC01EE58FF4FA591B49108
:1003E000611109C09FB7F894888120958223888382
:1003F000EC912E230BC0623061F49FB7F8943881E2
:10040000822F809583238883EC912E2B2C939FBF82
:1004100006C08FB7F894E8812E2B28838FBFDF9119
:10042000CF9108958E3008F08E508770806480934D
:100430007C0080917A00806480937A0080917A00B9
:1004400086FDFCCF809178002091790090E0922B7E
:1004500008958F929F92AF92BF92CF92DF92EF92C8
:10046000FF9282E00E941202BC01990F880B990B47
:100470000E94BF0A20E030E040EA50E40E94740B82
:1004800020E030EC4FE754E40E941C0A9B01AC01D1
:1004900060E070EE8BE296E40E941C0A20E030E8F7
:1004A00049E055E40E94AA096B017C0121E538E08E
:1004B00045E45BE20E94740BA70196010E94740B55
:1004C000A70196010E94740BA70196010E94740B6C
:1004D0004B015C012FE530E749E851E3C701B60164
:1004E0000E94740BA70196010E94740BA70196014C
:1004F0000E94740B9B01AC01C501B4010E94AA09C2
:100500004B015C012CE933E549EC56E3C701B60128
:100510000E94740BA70196010E94740B9B01AC0111
:10052000C501B4010E94AA094B015C0121E431EF2D
:1005300043EE5DE3C701B6010E94740B9B01AC0161
:10054000C501B4010E94AB0927ED33EE4AE153E443
:100550000E94AA0920E030E040E850E40E94AA0985
:10056000FF90EF90DF90CF90BF90AF909F908F90D3
:1005700008953FB7F8948091010290910202A091F2
:100580000302B091040226B5A89B05C02F3F19F0C5
:100590000196A11DB11D3FBFBA2FA92F982F882703
:1005A000820F911DA11DB11DBC01CD0142E0660F5E
:1005B000771F881F991F4A95D1F70895CF93DF932E
:1005C000EC0160E08E810E948A0161E08E810E94D0
:1005D0008A0160E08E810E948A018BE891E0019798
:1005E000F1F7DF91CF910895CF92DF92EF92FF92D2
:1005F0000F931F93CF93DF937C016C0187E0C80EAC
:10060000D11CC0E0D0E0062F10E0B8010C2E02C0D3
:10061000759567950A94E2F76170F60181916F0113
:100620000E948A012196C430D10579F7C701DF9174
:10063000CF911F910F91FF90EF90DF90CF900C948E
:10064000DE02CF92DF92EF92FF920F931F93CF9330
:10065000DF93EC01F62E642F8C810E948A018D813C
:100660008F3F19F060E00E948A018F850F2D10E006
:1006700084FF25C06E0187E0C80ED11CE12CF12C4F
:10068000B8010E2C02C0759567950A94E2F7617067
:10069000F60181916F010E948A01FFEFEF1AFF0AB4
:1006A00088E0E816F10461F7CE01DF91CF911F9148
:1006B0000F91FF90EF90DF90CF900C94DE02B80185
:1006C00084E0759567958A95E1F7CE010E94F40262
:1006D0006F2DCE01DF91CF911F910F91FF90EF9081
:1006E000DF90CF900C94F40241E00E94210381E05E
:1006F00090E0089540E00C942103EF92FF920F9355
:100700001F93CF93DF93EC01623018F08F858860E0
:100710008F876B8B1C8A80E48D8B80E18E8B80E5CC
:100720008F8B61E08C810E94D6018D818F3F19F003
:1007300061E00E94D60161E08E810E94D6017E01B7
:1007400087E0E80EF11C00E010E08F8584FD03C017
:1007500084E090E002C088E090E0081719074CF4AC
:1007600061E0F70181917F010E94D6010F5F1F4F69
:10077000ECCF8BE39DE00197F1F760E08C810E9464
:100780008A0160E08E810E948A018D818F3F19F07D
:1007900060E00E948A016F8564FD1DC063E0CE01A8
:1007A0000E94F4020BE416E4C8010197F1F763E03C
:1007B000CE010E94F402C8010197F1F763E0CE0177
:1007C0000E94F40283E592E00197F1F762E0CE0126
:1007D0000E94F40216C06062CE010E947A038BE48C
:1007E00096E40197F1F76F856062CE010E947A036B
:1007F00083E592E00197F1F76F856062CE010E9478
:100800007A036F856062CE010E947A0384E0888B50
:100810006CE0CE010E947A0361E0CE010E947A036F
:100820008BE39FE10197F1F782E0898B66E0CE01CF
:10083000DF91CF911F910F91FF90EF900C947A036D
:10084000643008F063E09091BB02691710F06FEF1D
:10085000690FE62FF0E0E855FD4F9489682F690F86
:10086000606888EA92E00C947A030F931F9361E02A
:1008700087E00E948A0183E290E00197F1F760E04F
:1008800087E00E948A01E6EBF0E06491E2EAF0E0A2
:10089000E491F0E0EE0FFF1FE057FF4F8591949138
:1008A00000E412E42FE030E0462F0E94AB06611511
:1008B00071058105910539F0DC01CB010196A11D7F
:1008C000B11DBF7003C080E090E0DC016AE370E01E
:1008D0000E945A09072E000C880B990B0E94BF0A30
:1008E0001F910F9108950E94E60B6115710579F033
:1008F000FB0101900020E9F73197AF01461B570B30
:10090000DC01ED91FC910280F381E02D099480E0FF
:1009100090E00895CF93DF93BC018BE092E00E94BA
:100920007504EC0168E171E08BE092E00E947504CF
:100930008C0F9D1FDF91CF9108954F925F926F9220
:100940007F92EF92FF920F931F93CF93DF93CDB7D8
:10095000DEB7A1970FB6F894DEBF0FBECDBF7C0106
:10096000FA01CB0119A2223008F42AE08E010F5DB2
:100970001F4F422E512C612C712CBF01A3019201FB
:100980000E946E09F901CA01015011096A3014F47C
:10099000605D01C0695CD8016C93232B242B252B4F
:1009A00061F7B801C7010E947504A1960FB6F894CB
:1009B000DEBF0FBECDBFDF91CF911F910F91FF9092
:1009C000EF907F906F905F904F900895CF92DF925D
:1009D000EF92FF920F931F93CF93DF936B01770FEB
:1009E000EE08FF08F7FE1BC0EC016DE20E948C00D0
:1009F0008C0144275527BA014C195D096E097F09FE
:100A00002AE0CE010E949D04800F911FDF91CF91BB
:100A10001F910F91FF90EF90DF90CF9008952AE003
:100A2000B701A601DF91CF911F910F91FF90EF9039
:100A3000DF90CF900C949D044F925F926F927F92C3
:100A40008F929F92AF92BF92CF92DF92EF92FF92DE
:100A5000CF93DF93EC016A017B01B22E9A01AB01C7
:100A6000C701B6010E94E10B882319F06BE171E028
:100A700027C026013701E89477F82FEF3FEF4FE7C3
:100A80005FE7C301B2010E94E10B81110DC02FEF9E
:100A90003FEF4FE75FE7C301B2010E94170A181644
:100AA0001CF46FE171E00CC02FEF3FEF4FE75FE404
:100AB000C701B6010E946F0B18169CF463E271E047
:100AC000CE01DF91CF91FF90EF90DF90CF90BF905C
:100AD000AF909F908F907F906F905F904F900C940D
:100AE00075042FEF3FEF4FE75FECC701B6010E949F
:100AF000170A87FDE3CF20E030E0A901C701B60166
:100B00000E94170A87FF0AC06DE2CE010E948C0086
:100B10004C01F7FAF094F7F8F09402C0812C912C74
:100B2000A12C60E070E080E09FE3AB1441F020E096
:100B300030E040E251E40E941C0AA394F6CF9B01EE
:100B4000AC01C701B6010E94AB092B013C010E9418
:100B50008E0A6B017C010E94BD0A9B01AC01C3019E
:100B6000B2010E94AA092B013C012AE0B701A601AB
:100B7000CE010E949D047C01E80CF91CBB2039F0D9
:100B800067E271E0CE010E947504E80EF91EDB2CCD
:100B9000DD2029F120E030E040E251E4C301B20160
:100BA0000E94740B2B013C010E948E0A4B01A12C68
:100BB000B12C2AE0B501A401CE010E949D04E80EEB
:100BC000F91EC501B4010E94BD0A9B01AC01C3011D
:100BD000B2010E94AA092B013C01DA94D9CFC701C6
:100BE000DF91CF91FF90EF90DF90CF90BF90AF90CB
:100BF0009F908F907F906F905F904F9008951F927D
:100C00000F920FB60F9211242F933F934F935F9340
:100C10006F937F938F939F93AF93BF93EF93FF93C4
:100C20008BE092E00E94F600FF91EF91BF91AF91AF
:100C30009F918F917F916F915F914F913F912F91F4
:100C40000F900FBE0F901F9018951F920F920FB626
:100C50000F9211242F938F939F93EF93FF93E09123
:100C60001B02F0911C028081E0912102F09122028E
:100C700082FD12C09081809124028F5F8F7320913A
:100C80002502821751F0E0912402F0E0E55FFD4F6C
:100C9000958F8093240201C08081FF91EF919F91F5
:100CA0008F912F910F900FBE0F901F9018951F924C
:100CB0000F920FB60F9211242F933F938F939F9310
:100CC000AF93BF938091FD019091FE01A091FF0130
:100CD000B09100023091FC0123E0230F2D3720F466
:100CE0000196A11DB11D05C026E8230F0296A11D86
:100CF000B11D2093FC018093FD019093FE01A09310
:100D0000FF01B09300028091010290910202A09134
:100D10000302B09104020196A11DB11D809301024E
:100D200090930202A0930302B0930402BF91AF918B
:100D30009F918F913F912F910F900FBE0F901F9019
:100D400018951F920F920FB60F9211240F900FBE9D
:100D50000F901F901895CF92DF92EF92FF920F9312
:100D60001F93E82FF92F05C00150110921093109FE
:100D700061F1908196239417B9F305C001501109D0
:100D80002109310911F1908196239413F7CFC12CD9
:100D9000D12CE12CF12C0AC08FEFC81AD80AE80A2E
:100DA000F80A0C151D052E053F0579F08081862374
:100DB000841791F36C2D7D2D8E2D9F2D1F910F91FA
:100DC000FF90EF90DF90CF90089560E070E080E0BA
:100DD00090E01F910F91FF90EF90DF90CF900895DA
:100DE000EBE0F2E01382128288EE93E0A0E0B0E044
:100DF00084839583A683B78384E091E09183808385
:100E000085EC90E09587848784EC90E097878687CF
:100E100080EC90E0918B808B81EC90E0938B828BC7
:100E200082EC90E0958B848B86EC90E0978B868BA0
:100E3000118E128E138E148EE8EAF2E01382128263
:100E400084E191E0918380838CE084838FEF8583BC
:100E50008BE086838AE0878384E0808783E08187D4
:100E600082E082871386148615861686178661E0CF
:100E7000CF010C947D03789484B5826084BD84B5E1
:100E8000816084BD85B5826085BD85B5816085BD85
:100E900080916E00816080936E001092810080913D
:100EA00081008260809381008091810081608093C5
:100EB0008100809180008160809380008091B100EA
:100EC00084608093B1008091B00081608093B00015
:100ED00080917A00846080937A0080917A008260A9
:100EE00080937A0080917A00816080937A0080916B
:100EF0007A00806880937A001092C10061E087E0F8
:100F00000E94D60160E087E00E948A0160E088E0EC
:100F10000E94D60161E08DE00E94D60162E088EA7D
:100F200092E00E947D0362E871E088EA92E00E940C
:100F3000750461E080E00E94200469E271E088EAC3
:100F400092E00E947504E0911B02F0911C0282E085
:100F50008083E0911702F09118021082E09119024B
:100F6000F0911A0280E1808310922302E0911F0227
:100F7000F091200286E08083E0911D02F0911E0234
:100F8000808180618083E0911D02F0911E0280814A
:100F900088608083E0911D02F0911E02808180684C
:100FA0008083E0911D02F0911E0280818F7D8083FD
:100FB0008AE391E00E948A0483E991E00E948A0416
:100FC0008AE391E00E948A0401E010E09BE3A92EED
:100FD0009FE1B92E8BE092E00E94E00018161906FE
:100FE0005CF58BE092E00E94BE00C82F682F8BE07A
:100FF00092E00E948C0068E171E08BE092E00E9438
:101000007504C13329F410930A0200930902E2CF58
:10101000C23369F0C33329F4109308020093070226
:10102000D9CFC033B9F6109208021092070210927D
:101030000A0210920902CECF61E088EA92E00E9493
:101040007A03C5010197F1F760E080E00E94200477
:101050000E942902AB01BC0122E088EA92E00E94D2
:101060001C056FED88EA92E00E948C0061E08AE046
:101070000E94200480E00E941202BC01990F880B9C
:10108000990B0E94BF0A20E030E048EC52E40E9435
:10109000740B20E030EC4FE754E40E941C0AAB01D3
:1010A000BC0122E088EA92E00E941C0565E288EA21
:1010B00092E00E948C0061E080E00E9420040E9487
:1010C0003504AB01BC0122E088EA92E00E941C05D5
:1010D00065EE71E088EA92E00E94750460E089E0C4
:1010E0000E94200469EE71E088EA92E00E94750493
:1010F0006091090270910A0288EA92E00E94E60477
:101100006CEE71E088EA92E00E947504609107023B
:101110007091080288EA92E00E94E6040E94290287
:10112000AB01BC0122E08BE092E00E941C0580EF45
:1011300091E00E948A0481E00E941202BC01990F92
:10114000880B990B0E94BF0A20E030E040EA50E48F
:101150000E94740B20E030EC4FE754E40E941C0A1C
:10116000AB01BC0122E08BE092E00E941C0582EF03
:1011700091E00E948A0480E00E941202BC01990F53
:10118000880B990B0E94BF0A20E030E048EC52E443
:101190000E94740B20E030EC4FE754E40E941C0ADC
:1011A000AB01BC0122E08BE092E00E941C0584EFC1
:1011B00091E00E948A040E943504AB01BC0122E048
:1011C0008BE092E00E941C0587EE91E00E948A0469
:1011D0006091090270910A028BE092E00E94E6049D
:1011E00086EF91E00E948A046091070270910802E4
:1011F0008BE092E00E94E60488EF91E00E948A046E
:101200008091070290910802019731F480910502C4
:1012100080FF02C061E001C060E08DE00E948A01B1
:10122000E0900902F0900A0221E0E216F10451F484
:101230000E94350420E030E040E251E40E946F0B50
:1012400018169CF1809105029091060201969093E8
:101250000602809305020E94B9022B013C0184EF33
:10126000C82EDD24D394E12CF12C0E94B902DC01BC
:10127000CB0184199509A609B709883E9340A105B9
:10128000B10558F081E0C81AD108E108F10828EE4C
:10129000420E23E0521E611C711CC114D104E104F2
:1012A000F10419F70E94800195CEF0920802E092B5
:1012B0000702C8CF97FB072E16F4009407D077FDDE
:1012C00009D00E94900907FC05D03EF490958195C5
:1012D0009F4F0895709561957F4F0895A1E21A2E52
:1012E000AA1BBB1BFD010DC0AA1FBB1FEE1FFF1FCA
:1012F000A217B307E407F50720F0A21BB30BE40B1A
:10130000F50B661F771F881F991F1A9469F7609560
:101310007095809590959B01AC01BD01CF0108951A
:10132000AA1BBB1B51E107C0AA1FBB1FA617B7070B
:1013300010F0A61BB70B881F991F5A95A9F7809527
:101340009095BC01CD010895EE0FFF1F0590F4911B
:10135000E02D09945058BB27AA270E94C2090C947B
:10136000350B0E94270B38F00E942E0B20F039F429
:101370009F3F19F426F40C94240B0EF4E095E7FB40
:101380000C941E0BE92F0E94460B58F3BA17620704
:1013900073078407950720F079F4A6F50C94680B81
:1013A0000EF4E0950B2EBA2FA02D0B01B901900180
:1013B0000C01CA01A0011124FF27591B99F0593FC4
:1013C00050F4503E68F11A16F040A22F232F342F0C
:1013D0004427585FF3CF469537952795A795F0405A
:1013E0005395C9F77EF41F16BA0B620B730B840B6F
:1013F000BAF09150A1F0FF0FBB1F661F771F881F27
:10140000C2F70EC0BA0F621F731F841F48F487957E
:1014100077956795B795F7959E3F08F0B0CF939570
:10142000880F08F09927EE0F9795879508950E94E9
:10143000FA0A08F481E008950E94300A0C94350BF2
:101440000E942E0B58F00E94270B40F029F45F3FBA
:1014500029F00C941E0B51110C94690B0C94240B65
:101460000E94460B68F39923B1F3552391F3951B22
:10147000550BBB27AA2762177307840738F09F5FB5
:101480005F4F220F331F441FAA1FA9F335D00E2E22
:101490003AF0E0E832D091505040E695001CCAF78F
:1014A0002BD0FE2F29D0660F771F881FBB1F261752
:1014B00037074807AB07B0E809F0BB0B802DBF0129
:1014C000FF2793585F4F3AF09E3F510578F00C94F8
:1014D0001E0B0C94690B5F3FE4F3983ED4F38695A2
:1014E00077956795B795F7959F5FC9F7880F911D19
:1014F0009695879597F90895E1E0660F771F881F05
:10150000BB1F621773078407BA0720F0621B730BB7
:10151000840BBA0BEE1F88F7E09508950E944E0BDE
:1015200088F09F5798F0B92F9927B751B0F0E1F0A4
:10153000660F771F881F991F1AF0BA95C9F714C054
:10154000B13091F00E94680BB1E008950C94680BE3
:10155000672F782F8827B85F39F0B93FCCF386958D
:1015600077956795B395D9F73EF4909580957095EA
:1015700061957F4F8F4F9F4F0895E89409C097FB67
:101580003EF490958095709561957F4F8F4F9F4F5A
:101590009923A9F0F92F96E9BB279395F69587959E
:1015A00077956795B795F111F8CFFAF4BB0F11F461
:1015B00060FF1BC06F5F7F4F8F4F9F4F16C0882308
:1015C00011F096E911C0772321F09EE8872F762F3E
:1015D00005C0662371F096E8862F70E060E02AF07F
:1015E0009A95660F771F881FDAF7880F969587956B
:1015F00097F90895990F0008550FAA0BE0E8FEEF40
:1016000016161706E807F907C0F012161306E407C6
:10161000F50798F0621B730B840B950B39F40A26BF
:1016200061F0232B242B252B21F408950A2609F49D
:10163000A140A6958FEF811D811D089597F99F67A1
:1016400080E870E060E008959FEF80EC089500244A
:101650000A941616170618060906089500240A9417
:1016600012161306140605060895092E0394000C9D
:1016700011F4882352F0BB0F40F4BF2B11F460FF2C
:1016800004C06F5F7F4F8F4F9F4F089557FD905855
:10169000440F551F59F05F3F71F04795880F97FB36
:1016A000991F61F09F3F79F08795089512161306F0
:1016B0001406551FF2CF4695F1DF08C0161617061F
:1016C0001806991FF1CF8695710561050894089554
:1016D000E894BB2766277727CB0197F908950E94E6
:1016E000FA0A08F48FEF08950E94870B0C94350BCB
:1016F0000E94270B38F00E942E0B20F0952311F04A
:101700000C941E0B0C94240B11240C94690B0E9456
:10171000460B70F3959FC1F3950F50E0551F629FE4
:10172000F001729FBB27F00DB11D639FAA27F00D3A
:10173000B11DAA1F649F6627B00DA11D661F829F61
:101740002227B00DA11D621F739FB00DA11D621F46
:10175000839FA00D611D221F749F3327A00D611D63
:10176000231F849F600D211D822F762F6A2F112445
:101770009F5750409AF0F1F088234AF0EE0FFF1F78
:10178000BB1F661F771F881F91505040A9F79E3FCF
:10179000510580F00C941E0B0C94690B5F3FE4F331
:1017A000983ED4F3869577956795B795F795E79525
:1017B0009F5FC1F7FE2B880F911D9695879597F92E
:1017C00008950E94FA0A880B990B089581E090E031
:0A17D000F8940C94EB0BF894FFCF93
:1017DA000000000017019300E000BE00D2005E0185
:1017EA0000000000740393000D0A006E616E006928
:1017FA006E66006F7666002E0020202069526F6F99
:10180A006D2076312E30202020002D2D2D2D2D2DCE
:10181A002D2D2D2D2D2D2D2D2D2D2D2D2D2D2D2DEE
:10182A002D2D2D2D2D2D2D2D2D2D2D2D2D2D2D2DDE
:10183A002D2D2D2D2D2D2D2D2D2D2D2D2D2D2D2DCE
:10184A002D2D2D2D2D2D2D2D2D2D2D2D2D2D2D2DBE
:10185A002D2D2D2D2D2D2D2D2D2D2D2D2D2D2D2DAE
:10186A002D2D002020202020202020202020202074
:10187A0020202020202020202020202020206953E2
:10188A006572766572202D2069526F6F6D204465EE
:10189A007669636573202D206953656E736F727361
:1018AA00202020202020202020202020202020202E
:1018BA00202020200020636D00413A0020423A0097
:0A18CA00740076006C0061006200FB
:107E0000112484B714BE81FFF0D085E080938100F7
:107E100082E08093C00088E18093C10086E0809377
:107E2000C20080E18093C4008EE0C9D0259A86E02C
:107E300020E33CEF91E0309385002093840096BBD3
:107E4000B09BFECF1D9AA8958150A9F7CC24DD24C4
:107E500088248394B5E0AB2EA1E19A2EF3E0BF2EE7
:107E6000A2D0813461F49FD0082FAFD0023811F036
:107E7000013811F484E001C083E08DD089C08234E0
:107E800011F484E103C0853419F485E0A6D080C0E4
:107E9000853579F488D0E82EFF2485D0082F10E0AE
:107EA000102F00270E291F29000F111F8ED06801E7
:107EB0006FC0863521F484E090D080E0DECF843638
:107EC00009F040C070D06FD0082F6DD080E0C81688
:107ED00080E7D80618F4F601B7BEE895C0E0D1E017
:107EE00062D089930C17E1F7F0E0CF16F0E7DF06D8
:107EF00018F0F601B7BEE89568D007B600FCFDCFD4
:107F0000A601A0E0B1E02C9130E011968C91119780
:107F100090E0982F8827822B932B1296FA010C0160
:107F200087BEE89511244E5F5F4FF1E0A038BF0790
:107F300051F7F601A7BEE89507B600FCFDCF97BE46
:107F4000E89526C08437B1F42ED02DD0F82E2BD052
:107F50003CD0F601EF2C8F010F5F1F4F84911BD097
:107F6000EA94F801C1F70894C11CD11CFA94CF0C13
:107F7000D11C0EC0853739F428D08EE10CD085E9AC
:107F80000AD08FE07ACF813511F488E018D01DD067
:107F900080E101D065CF982F8091C00085FFFCCF94
:107FA0009093C60008958091C00087FFFCCF809118
:107FB000C00084FD01C0A8958091C6000895E0E648
:107FC000F0E098E1908380830895EDDF803219F02E
:107FD00088E0F5DFFFCF84E1DECF1F93182FE3DFCA
:107FE0001150E9F7F2DF1F91089580E0E8DFEE27F6
:047FF000FF270994CA
:027FFE00040479
:0400000300007E007B
:00000001FF
