:100000000C9463000C948B000C948B000C9464048F
:100010000C9464040C9464040C948B000C948B007A
:100020000C948B000C948B000C948B000C948B0024
:100030000C948B000C948B000C948B000C948B0014
:100040000C941A040C948B000C94E8030C94C203D7
:100050000C948B000C948B000C948B000C948B00F4
:100060000C948B000C948B000000000024002700EF
:100070002A0000000008000201000003040700003D
:1000800000000000000000000000250028002B00F8
:1000900000000000230026002900040404040404D6
:1000A0000404020202020202030303030303010227
:1000B00004081020408001020408102001020408F6
:1000C0001020DE042C0911241FBECFEFD8E0DEBFC4
:1000D000CDBF11E0A0E0B1E0ECEAFBE102C0059089
:1000E0000D92A436B107D9F722E0A4E6B1E001C031
:1000F0001D92AB3AB207E1F710E0C2E6D0E004C0CF
:100100002197FE010E94AD09C136D107C9F70E94AF
:10011000BD050C94C90D0C940000DC01ED91FC911F
:100120000190F081E02D0994CF92DF92EF92FF923F
:100130000F931F93CF93DF936C017A018B01C0E083
:10014000D0E0CE15DF0589F0D8016D918D01D60183
:10015000ED91FC910190F081E02DC6010995892B6C
:1001600011F47E0102C02196ECCFC701DF91CF913F
:100170001F910F91FF90EF90DF90CF900895FC01B9
:10018000918D828D981761F0828DDF01A80FB11DCE
:100190005D968C91928D9F5F9F73928F90E00895F2
:1001A0008FEF9FEF0895FC01918D828D981731F0AC
:1001B000828DE80FF11D858D90E008958FEF9FEF00
:1001C0000895FC01918D228D892F90E0805C9F4FD6
:1001D000821B91098F739927089581EC91E00E9409
:1001E000E10021E0892B09F420E0822F0895FC0131
:1001F000848DDF01A80FB11DA35ABF4F2C91848DB0
:1002000090E001968F739927848FA689B7892C93E4
:10021000A089B1898C9180648C93938D848D98137F
:1002200006C00288F389E02D80818F7D8083089548
:10023000EF92FF920F931F93CF93DF93EC0181E036
:10024000888F9B8D8C8D981305C0E889F9898081F2
:1002500085FD24C0F62E0B8D10E00F5F1F4F0F732E
:100260001127E02E8C8DE8120CC00FB607FCFACFD8
:10027000E889F989808185FFF5CFCE010E94F700DA
:10028000F1CF8B8DFE01E80FF11DE35AFF4FF08295
:100290000B8FEA89FB898081806207C0EE89FF8924
:1002A0006083E889F98980818064808381E090E0BF
:1002B000DF91CF911F910F91FF90EF900895CF9311
:1002C000DF93EC01888D8823C9F0EA89FB8980815E
:1002D00085FD05C0A889B9898C9186FD0FC00FB630
:1002E00007FCF5CF808185FFF2CFA889B9898C9171
:1002F00085FFEDCFCE010E94F700E7CFDF91CF91D0
:10030000089580E090E0892B29F00E94ED00811192
:100310000C940000089590E0FC01EE58FF4F3491DA
:10032000FC01E255FF4F2491FC01E656FF4FE4919A
:10033000EE2309F43BC0332339F1333091F038F424
:100340003130A9F0323001F584B58F7D12C03730DD
:1003500091F03830A1F03430B9F4809180008F7D75
:1003600003C0809180008F77809380000DC084B59A
:100370008F7784BD09C08091B0008F7703C08091D2
:10038000B0008F7D8093B000F0E0EE0FFF1FEA57C2
:10039000FF4FA591B4918FB7F894EC91611103C010
:1003A00020952E2301C02E2B2C938FBF0895CF9321
:1003B000DF9390E0FC01E255FF4F2491FC01E656EB
:1003C000FF4F8491882361F190E0880F991FFC0111
:1003D000E859FF4FC591D491FC01EA57FF4FA59111
:1003E000B491611109C09FB7F89488812095822348
:1003F0008883EC912E230BC0623061F49FB7F89490
:100400003881822F809583238883EC912E2B2C9327
:100410009FBF06C08FB7F894E8812E2B28838FBF2B
:10042000DF91CF9108953FB7F8948091A901909101
:10043000AA01A091AB01B091AC0126B5A89B05C063
:100440002F3F19F00196A11DB11D3FBFBA2FA92F53
:10045000982F8827820F911DA11DB11DBC01CD01D0
:1004600042E0660F771F881F991F4A95D1F70895BC
:100470002091AF013091B0012817390771F49091A4
:10048000AD018091AE01981741F0E091AD01F0E02F
:10049000EC59FE4F808190E008958FEF9FEF089513
:1004A00008951F93CF93DF93DC015C962D913C91CF
:1004B0005D972115310539F481E090E013969C9306
:1004C0008E9312973DC05196ED91FC9152975096A4
:1004D0009C915097892F80951FB75E964C915E979F
:1004E00041FB772770F941FD6095F89440817723AF
:1004F00011F0492B01C048234083E9012197F1F70E
:1005000048E0508160FF02C0592B01C0582350833E
:10051000E9012197F1F76695415099F7772321F08A
:1005200090818923808303C08081982B90831FBF93
:100530005C968D919C915D970197F1F721E030E0F9
:10054000C901DF91CF911F9108952091AF013091A2
:10055000B0012817390771F48091AE012091AD01E7
:1005600090E0805C9F4F821B910960E470E00E94E4
:100570006309089580E090E008952091AF013091E3
:10058000B00128173907B9F49091AD018091AE01FF
:10059000981789F0E091AD01F0E0EC59FE4F8081B1
:1005A0002091AD0130E02F5F3F4F2F733327209311
:1005B000AD0190E008958FEF9FEF0895009769F0E7
:1005C000FC0101900020E9F73197AF01481B590B5E
:1005D000BC018EE592E00C94940080E090E00895D8
:1005E000CF93DF930E94DE02EC0186E291E00E944D
:1005F000DE028C0F9D1FDF91CF9108958F929F9205
:10060000AF92BF920F931F93CF93DF93CDB7DEB717
:10061000A1970FB6F894DEBF0FBECDBF19A242302E
:1006200008F44AE08E010F5D1F4F842E912CA12CFF
:10063000B12CA50194010E947709E62FB901CA01E6
:1006400001501109EA3014F4E05D01C0E95CD80101
:10065000EC93232B242B252B61F7C8010E94DE028B
:10066000A1960FB6F894DEBF0FBECDBFDF91CF913C
:100670001F910F91BF90AF909F908F900895CF9250
:10068000DF92EF92FF92CF93DF936C01990FEE0808
:10069000FF08F7FE19C06DE28EE592E00E948D0022
:1006A000EC0166277727CB016C197D098E099F091C
:1006B0004AE00E94FE028C0F9D1FDF91CF91FF90B8
:1006C000EF90DF90CF9008954AE0C701B601DF9127
:1006D000CF91FF90EF90DF90CF900C94FE020E949C
:1006E000500CFC01808191810C94EE0AEF92FF92F4
:1006F0000F931F93CF93DF93EC01198218821B8213
:100700001A821D821C8261157105A9F17B01FB0112
:1007100001900020E9F731978F01061B170BB801F4
:100720006F5F7F4F80E090E00E94860B009759F04A
:10073000998388831B830A832C813D81232B81F439
:10074000FC0110820DC088819981009711F00E94F0
:10075000EE0A198218821D821C821B821A820BC02B
:100760001D830C83B701DF91CF911F910F91FF90F3
:10077000EF900C94670CDF91CF911F910F91FF9038
:10078000EF9008951F920F920FB60F9211242F939E
:100790003F934F935F936F937F938F939F93AF9309
:1007A000BF93EF93FF9381EC91E00E94F700FF91DC
:1007B000EF91BF91AF919F918F917F916F915F91D9
:1007C0004F913F912F910F900FBE0F901F90189552
:1007D0001F920F920FB60F9211242F938F939F9316
:1007E000EF93FF93E091D101F091D2018081E091EC
:1007F000D701F091D80182FD12C090818091DA0179
:100800008F5F8F732091DB01821751F0E091DA0145
:10081000F0E0EF53FE4F958F8093DA0101C08081A5
:10082000FF91EF919F918F912F910F900FBE0F909D
:100830001F9018951F920F920FB60F9211242F93AD
:100840003F938F939F93AF93BF938091A501909116
:10085000A601A091A701B091A8013091A40123E0C5
:10086000230F2D3720F40196A11DB11D05C026E8E8
:10087000230F0296A11DB11D2093A4018093A50111
:100880009093A601A093A701B093A8018091A9011C
:100890009091AA01A091AB01B091AC010196A11D6C
:1008A000B11D8093A9019093AA01A093AB01B093CD
:1008B000AC01BF91AF919F918F913F912F910F907C
:1008C0000FBE0F901F9018951F920F920FB60F92A8
:1008D00011242F933F934F935F936F937F938F9345
:1008E0009F93AF93BF93EF93FF93E091AF01F0918C
:1008F000B001309709F451C0968DA685B7858585DE
:1009000091FF04C09C91892329F447C09C918923BD
:1009100009F043C0A389B4899C9185898095892376
:100920008C93868997890197F1F7608D718DA685E3
:10093000B785558538E020E0CB010197F1F7822F8C
:1009400090E095958795282F4C91452309F02068D4
:10095000315091F7868D81FD20958091AE0190E018
:1009600001968F7399273091AD01381749F0A09106
:10097000AE01B0E0AC59BE4F2C938093AE0103C0E2
:10098000868D8160868F828D938D0197F1F7A38983
:10099000B4899C918589892B8C93FF91EF91BF91AC
:1009A000AF919F918F917F916F915F914F913F9107
:1009B0002F910F900FBE0F901F901895CF92DF923E
:1009C000EF92FF921092C4011092C30198EEC92ECB
:1009D00093E0D92EE12CF12CC092C501D092C60132
:1009E000E092C701F092C8018AE091E09093C201C1
:1009F0008093C10185EC90E09093CE018093CD016E
:100A000084EC90E09093D0018093CF0180EC90E053
:100A10009093D2018093D10181EC90E09093D40126
:100A20008093D30182EC90E09093D6018093D5011E
:100A300086EC90E09093D8018093D7011092DA0170
:100A40001092DB011092DC011092DD0168E271E08E
:100A500081EA92E00E94760368E271E08BE992E01D
:100A60000E94760368E271E085E992E00E947603D5
:100A700068E271E08FE892E00E94760368E271E03C
:100A800089E892E00E94760368E271E083E892E0F0
:100A90000E94760368E271E08DE792E00E9476039F
:100AA0001092610210926002C0926202D0926302C0
:100AB000E0926402F09265028AE191E090935F0215
:100AC00080935E0210927502109274021092770267
:100AD00010927602109279021092780210927B02A4
:100AE00010927A0260917C026E7F6D7F60937C022F
:100AF0006695617081E068278BE00E948B0161E060
:100B00008BE00E94D701E9EBF0E0E491E0936E0204
:100B1000E5EAF0E0E491F0E0EE0FFF1FEA57FF4F47
:100B2000859194919093700280936F0260E08AE0C7
:100B30000E94D70180917C0281FD04C061E08AE0BF
:100B40000E948B018AE080936A02E8EBF0E0E49176
:100B5000E0936B02E4EAF0E0E491F0E0EE0FFF1FB7
:100B6000E057FF4F8591949190936D0280936C02B2
:100B7000FF90EF90DF90CF900895CF93DF931F9277
:100B8000CDB7DEB7789484B5826084BD84B58160CA
:100B900084BD85B5826085BD85B5816085BD809148
:100BA0006E00816080936E001092810080918100C0
:100BB00082608093810080918100816080938100B8
:100BC000809180008160809380008091B10084607A
:100BD0008093B1008091B00081608093B0008091DB
:100BE0007A00846080937A0080917A00826080939A
:100BF0007A0080917A00816080937A0080917A00F7
:100C0000806880937A001092C10060E08AE00E94C0
:100C1000D70160E080E00E94D70161E08BE00E9494
:100C2000D70161E081E00E94D70161E083E00E948A
:100C3000D70161E082E00E94D70161E085E00E9477
:100C4000D70161E084E00E94D70161E089E00E9461
:100C5000D7011092790210927802109277021092C6
:100C6000760210927502109274028FE190E09093D8
:100C70007B0280937A0290916A02963108F057C005
:100C800021E030E030937502209374022DE130E0D2
:100C900030937702209376022DE030E03093790292
:100CA0002093780220916800983050F031E09E3017
:100CB00008F430E081E001C0880F3A95EAF701C0FE
:100CC00084E0822B80936800983038F09E3040F0AA
:100CD000963148F020E030E008C02DE630E005C055
:100CE0002BE630E002C02CE630E030937202209315
:100CF0007102983030F481E001C0880F9A95EAF7CC
:100D00000EC0292F30E09E3018F42850310902C05F
:100D10002E50310981E001C0880F2A95EAF78093AF
:100D2000730280917A0290917B020197F1F7809192
:100D3000780290917902892B49F1E091AF01F0910D
:100D4000B00122E0EE35F20709F1309739F0A389BE
:100D5000B4899C918589809589238C9380917C02AC
:100D60008E7F80937C021092AE011092AD018EE5D1
:100D700092E09093B0018093AF01E0917102F09105
:100D80007202908180917302892B808389E291E0C5
:100D90000E94F002E091D101F091D20182E08083C3
:100DA000E091CD01F091CE011082E091CF01F09160
:100DB000D00180E180831092D901E091D501F091BA
:100DC000D60186E08083E091D301F091D401808147
:100DD00080618083E091D301F091D40180818860AB
:100DE0008083E091D301F091D40180818068808379
:100DF000E091D301F091D40180818F7D808390E4D4
:100E0000B92E88248394912C0BE010E0B0927C00E2
:100E100080917A00806480937A0080917A0086FDC8
:100E2000FCCF609178008091790070E0782B072EDC
:100E3000000C880B990B0E94750C20E93EE34AEFE9
:100E40005EE30E94D40C6093BD017093BE01809359
:100E5000BF019093C00181EC91E00E94E10018165F
:100E600019060CF006C181EC91E00E94BF00282F0A
:100E7000682F8EE592E029830E948D002981243716
:100E800009F0AFC088E291E00E94F002C090BD017D
:100E9000D090BE01E090BF01F090C001A701960183
:100EA000C701B6010E94540A882319F08BE491E02F
:100EB0001AC026013701E89477F82FEF3FEF4FE78C
:100EC0005FE7C301B2010E94540A81110FC02FEFE6
:100ED0003FEF4FE75FE7C301B2010E946E0C1816A7
:100EE0002CF48FE491E00E94DE0275C02FEF3FEFFB
:100EF0004FE75FE4C701B6010E944F0A18161CF4C1
:100F000083E591E0F0CF2FEF3FEF4FE75FECC701B4
:100F1000B6010E946E0C87FDF3CF20E030E0A901FE
:100F2000C701B6010E946E0C87FF09C06DE28EE515
:100F300092E00E948D00F7FAF094F7F8F0942AE01E
:100F400037ED43EA5BE3C701B6010E94B4092B0108
:100F50003C010E94200A6B017C010E94730C9B01E2
:100F6000AC01C301B2010E94B3092B013C014AE06C
:100F7000C701B6010E94FE0287E591E00E94DE02F1
:100F800020E030E040E251E4C301B2010E94D40C01
:100F90002B013C010E94200A6B01E12CF12C4AE05C
:100FA000C701B6010E94FE02C701B6010E94730C80
:100FB0009B01AC01C301B2010E94B30920E030E003
:100FC00040E251E40E94D40C0E94200A80E090E0AC
:100FD0004AE00E94FE0263E68EE592E00E948D00E8
:100FE0003ACF223609F037CF88E291E00E94F00232
:100FF0008091BB019091BC010E943F0389E591E083
:101000000E94F0028091B9019091BA010E943F03C1
:101010008BE591E00E94F0028091B7019091B801B8
:101020000E943F038DE591E00E94F0028091B5019E
:101030009091B6010E943F038FE591E00E94F0027B
:101040000ACF8EE592E00E94BD02282F682F81EC26
:1010500091E029830E948D0029812433B9F4809185
:10106000B9019091BA01892B61F49092BA018092F2
:10107000B9018EE592E00E94A502181619060CF33C
:101080003BC01092BA011092B901F3CF253381F41D
:101090008091BB019091BC01892B29F49092BC01F5
:1010A0008092BB01E6CF1092BC011092BB01E1CF50
:1010B000263381F48091B5019091B601892B29F4F2
:1010C0009092B6018092B501D4CF1092B6011092E1
:1010D000B501CFCF273369F68091B7019091B80160
:1010E000892B29F49092B8018092B701C2CF109257
:1010F000B8011092B701BDCF20E030E040E252E4E9
:101100006091BD017091BE018091BF019091C001BD
:101110000E944F0A181644F461E089E00E948B0196
:101120001093B4010093B301C090B301D090B40107
:1011300081E0C816D10421F460E089E00E948B01AF
:101140008091B9019091BA01019711F461E001C059
:1011500060E083E00E948B018091BB019091BC0113
:10116000019711F461E001C060E082E00E948B0110
:101170008091B5019091B601019711F461E001C031
:1011800060E085E00E948B018091B7019091B801E9
:10119000019711F461E001C060E084E00E948B01DE
:1011A0008091870290918802E090B101F090B201A5
:1011B000892BA9F061E671E080918302909184020D
:1011C0000E945E0C892B59F4E0FC05C09092B60198
:1011D0008092B50104C01092B6011092B501C114FD
:1011E000D10449F0E0FC07C021E0C21AD108D09236
:1011F000B401C092B3018FEFE81AF80AF092B2017D
:10120000E092B1010E9413022B013C0184EFC82E31
:10121000DD24D394E12CF12C0E941302DC01CB01DC
:1012200084199509A609B709883E9340A105B1051F
:1012300058F021E0C21AD108E108F10888EE480E02
:1012400083E0581E611C711CC114D104E104F10437
:1012500019F70E948101DACD8AE191E090935F0253
:1012600080935E028091AF019091B0018E559240C3
:1012700071F4E0917102F091720290818091730299
:101280008095892380831092B0011092AF018DE781
:1012900092E00E94710383E892E00E94710389E862
:1012A00092E00E9471038FE892E00E94710385E949
:1012B00092E00E9471038BE992E00E94710381EA3F
:1012C00092E00C94710397FB072E16F4009407D05C
:1012D00077FD09D00E94990907FC05D03EF490954E
:1012E00081959F4F0895709561957F4F0895A1E274
:1012F0001A2EAA1BBB1BFD010DC0AA1FBB1FEE1F90
:10130000FF1FA217B307E407F50720F0A21BB30BDA
:10131000E40BF50B661F771F881F991F1A9469F756
:1013200060957095809590959B01AC01BD01CF01B2
:101330000895AA1BBB1B51E107C0AA1FBB1FA6171C
:10134000B70710F0A61BB70B881F991F5A95A9F76E
:1013500080959095BC01CD010895EE0FFF1F05907B
:10136000F491E02D09945058BB27AA270E94CB097D
:101370000C94580D0E944A0D38F00E94510D20F037
:1013800039F49F3F19F426F40C94470D0EF4E095C0
:10139000E7FB0C94410DE92F0E94690D58F3BA1731
:1013A000620773078407950720F079F4A6F50C947B
:1013B0008B0D0EF4E0950B2EBA2FA02D0B01B90169
:1013C00090010C01CA01A0011124FF27591B99F0BB
:1013D000593F50F4503E68F11A16F040A22F232FC7
:1013E000342F4427585FF3CF469537952795A79517
:1013F000F0405395C9F77EF41F16BA0B620B730BBE
:10140000840BBAF09150A1F0FF0FBB1F661F771F2E
:10141000881FC2F70EC0BA0F621F731F841F48F4E3
:10142000879577956795B795F7959E3F08F0B0CF6C
:101430009395880F08F09927EE0F97958795089553
:101440000E94710D88F09F5798F0B92F9927B751D6
:10145000B0F0E1F0660F771F881F991F1AF0BA9558
:10146000C9F714C0B13091F00E948B0DB1E008951E
:101470000C948B0D672F782F8827B85F39F0B93F10
:10148000CCF3869577956795B395D9F73EF490950B
:101490008095709561957F4F8F4F9F4F08950E9463
:1014A000B00C08F48FEF08950E94B00C880B990BD4
:1014B0000895CF93DF938230910510F482E090E09D
:1014C000E091A902F091AA0220E030E0C0E0D0E073
:1014D000309711F14081518148175907C0F04817E2
:1014E000590761F482819381209719F09B838A8345
:1014F0002BC09093AA028093A90226C02115310522
:1015000019F04217530718F49A01BE01DF01EF01E9
:101510000280F381E02DDCCF2115310509F1281B74
:10152000390B2430310590F412968D919C911397CC
:101530006115710521F0FB019383828304C09093B0
:10154000AA028093A902FD01329644C0FD01E20F78
:10155000F31F81939193225031092D933C933AC00C
:101560002091A7023091A802232B41F4209102017F
:10157000309103013093A8022093A702209100012B
:10158000309101012115310541F42DB73EB740914D
:10159000040150910501241B350BE091A702F09145
:1015A000A802E217F307A0F42E1B3F0B28173907F8
:1015B00078F0AC014E5F5F4F2417350748F04E0FAF
:1015C0005F1F5093A8024093A7028193919302C09A
:1015D000E0E0F0E0CF01DF91CF9108950F931F93EA
:1015E000CF93DF93009709F48CC0FC0132971382EC
:1015F00012820091A9021091AA020115110581F42D
:1016000020813181820F931F2091A7023091A8027F
:101610002817390779F5F093A802E093A70271C063
:10162000D80140E050E0AE17BF0750F412962D915C
:101630003C911397AD012115310509F1D901F3CF83
:101640009D01DA013383228360817181860F971FA8
:101650008217930769F4EC0128813981260F371F1F
:101660002E5F3F4F318320838A819B8193838283C6
:10167000452B29F4F093AA02E093A90242C01396E5
:10168000FC93EE931297ED01499159919E01240F1D
:10169000351FE217F30771F480819181840F951F44
:1016A000029611969C938E938281938113969C93BC
:1016B0008E931297E0E0F0E0D80112968D919C9104
:1016C0001397009719F0F8018C01F6CF8D919C913A
:1016D00098012E5F3F4F820F931F2091A7023091F8
:1016E000A8022817390769F4309729F41092AA0242
:1016F0001092A90202C0138212821093A8020093D2
:10170000A702DF91CF911F910F910895A0E0B0E063
:10171000ECE8FBE00C94960DEC01009721F4CB0172
:101720000E94590AB8C0FC01E60FF71F9C01225025
:101730003109E217F30708F4ACC0D9010D911C91EF
:10174000119706171707B0F00530110508F49FC070
:10175000C80104978617970708F499C00250110929
:10176000061B170B019311936D937C93CF010E947D
:10177000EE0A8DC05B01A01AB10A4C01800E911EC9
:10178000A091A902B091AA0240E050E0E12CF12C16
:10179000109709F44AC0A815B905D1F56D907C9051
:1017A0001197630182E0C80ED11CCA14DB0480F1DA
:1017B000A3014A195B096A0182E0C80ED11C129686
:1017C000BC9012971396AC91B5E0CB16D10440F0C3
:1017D000B282A38351834083D9016D937C930AC065
:1017E0000E5F1F4FC301800F911FF901918380830A
:1017F000EB2DFA2FE114F10431F0D7011396FC938D
:10180000EE93129744C0F093AA02E093A9023FC05E
:101810008D919C9111974817590708F4AC017D01EF
:1018200012960D90BC91A02DB3CF8091A7029091FC
:10183000A80288159905E1F446175707C8F4809166
:10184000000190910101009741F48DB79EB740913E
:10185000040150910501841B950BE817F907C8F4A2
:10186000F093A802E093A702F901718360830FC08F
:10187000CB010E94590A7C01009759F0A801BE01D2
:101880000E94550CCE010E94EE0AC70104C0CE0191
:1018900002C080E090E0CDB7DEB7EEE00C94B20D70
:1018A00081E090E0F8940C94C90DFB01DC0102C0CA
:1018B00001900D9241505040D8F70895FB01DC0192
:1018C0008D91019080190110D9F3990B0895FB01B6
:1018D000DC0101900D920020E1F708950E94B00C08
:1018E00008F481E00895E89409C097FB3EF49095D0
:1018F0008095709561957F4F8F4F9F4F9923A9F0E9
:10190000F92F96E9BB279395F69587957795679577
:10191000B795F111F8CFFAF4BB0F11F460FF1BC0BB
:101920006F5F7F4F8F4F9F4F16C0882311F096E94E
:1019300011C0772321F09EE8872F762F05C06623FC
:1019400071F096E8862F70E060E02AF09A95660FB5
:10195000771F881FDAF7880F9695879597F908956E
:10196000990F0008550FAA0BE0E8FEEF16161706B0
:10197000E807F907C0F012161306E407F50798F018
:10198000621B730B840B950B39F40A2661F0232B31
:10199000242B252B21F408950A2609F4A140A695AD
:1019A0008FEF811D811D08950E94E70C0C94580D46
:1019B0000E944A0D38F00E94510D20F0952311F03D
:1019C0000C94410D0C94470D11240C948C0D0E9425
:1019D000690D70F3959FC1F3950F50E0551F629FFD
:1019E000F001729FBB27F00DB11D639FAA27F00D78
:1019F000B11DAA1F649F6627B00DA11D661F829F9F
:101A00002227B00DA11D621F739FB00DA11D621F83
:101A1000839FA00D611D221F749F3327A00D611DA0
:101A2000231F849F600D211D822F762F6A2F112482
:101A30009F5750409AF0F1F088234AF0EE0FFF1FB5
:101A4000BB1F661F771F881F91505040A9F79E3F0C
:101A5000510580F00C94410D0C948C0D5F3FE4F324
:101A6000983ED4F3869577956795B795F795E79562
:101A70009F5FC1F7FE2B880F911D9695879597F96B
:101A8000089597F99F6780E870E060E008959FEF00
:101A900080EC089500240A94161617061806090605
:101AA000089500240A9412161306140605060895D4
:101AB000092E0394000C11F4882352F0BB0F40F45C
:101AC000BF2B11F460FF04C06F5F7F4F8F4F9F4F9C
:101AD000089557FD9058440F551F59F05F3F71F01E
:101AE0004795880F97FB991F61F09F3F79F0879585
:101AF0000895121613061406551FF2CF4695F1DF0E
:101B000008C0161617061806991FF1CF869571059D
:101B1000610508940895E894BB2766277727CB01D1
:101B200097F908952F923F924F925F926F927F9212
:101B30008F929F92AF92BF92CF92DF92EF92FF92DD
:101B40000F931F93CF93DF93CDB7DEB7CA1BDB0B89
:101B50000FB6F894DEBF0FBECDBF09942A8839882E
:101B600048885F846E847D848C849B84AA84B98435
:101B7000C884DF80EE80FD800C811B81AA81B98141
:101B8000CE0FD11D0FB6F894DEBF0FBECDBFED0155
:101B9000089510E0C2E6D0E004C0FE010E94AD0945
:0C1BA0002196C336D107C9F7F894FFCF97
:101BAC000000AB0280000000000018019400E1006E
:101BBC00BF00D3005F010000000051029400A50299
:101BCC00BD02380250020D0A0053657269616C2027
:101BDC006953657276657220436F6E6E65637469C6
:101BEC006F6E2053746172746564006E616E00696F
:101BFC006E66006F7666002E0077007500670072C7
:041C0C0000310000A3
:107E0000112484B714BE81FFF0D085E080938100F7
:107E100082E08093C00088E18093C10086E0809377
:107E2000C20080E18093C4008EE0C9D0259A86E02C
:107E300020E33CEF91E0309385002093840096BBD3
:107E4000B09BFECF1D9AA8958150A9F7CC24DD24C4
:107E500088248394B5E0AB2EA1E19A2EF3E0BF2EE7
:107E6000A2D0813461F49FD0082FAFD0023811F036
:107E7000013811F484E001C083E08DD089C08234E0
:107E800011F484E103C0853419F485E0A6D080C0E4
:107E9000853579F488D0E82EFF2485D0082F10E0AE
:107EA000102F00270E291F29000F111F8ED06801E7
:107EB0006FC0863521F484E090D080E0DECF843638
:107EC00009F040C070D06FD0082F6DD080E0C81688
:107ED00080E7D80618F4F601B7BEE895C0E0D1E017
:107EE00062D089930C17E1F7F0E0CF16F0E7DF06D8
:107EF00018F0F601B7BEE89568D007B600FCFDCFD4
:107F0000A601A0E0B1E02C9130E011968C91119780
:107F100090E0982F8827822B932B1296FA010C0160
:107F200087BEE89511244E5F5F4FF1E0A038BF0790
:107F300051F7F601A7BEE89507B600FCFDCF97BE46
:107F4000E89526C08437B1F42ED02DD0F82E2BD052
:107F50003CD0F601EF2C8F010F5F1F4F84911BD097
:107F6000EA94F801C1F70894C11CD11CFA94CF0C13
:107F7000D11C0EC0853739F428D08EE10CD085E9AC
:107F80000AD08FE07ACF813511F488E018D01DD067
:107F900080E101D065CF982F8091C00085FFFCCF94
:107FA0009093C60008958091C00087FFFCCF809118
:107FB000C00084FD01C0A8958091C6000895E0E648
:107FC000F0E098E1908380830895EDDF803219F02E
:107FD00088E0F5DFFFCF84E1DECF1F93182FE3DFCA
:107FE0001150E9F7F2DF1F91089580E0E8DFEE27F6
:047FF000FF270994CA
:027FFE00040479
:0400000300007E007B
:00000001FF
